:100000000C9435000C945D000C945D000C945D0024
:100010000C945D000C945D000C945D000C945D00EC
:100020000C945D000C945D000C945D000C945D00DC
:100030000C945D000C945D000C945D000C945D00CC
:100040000C9413040C945D000C9483040C945D04D4
:100050000C945D000C945D000C945D000C945D00AC
:100060000C945D000C945D003A0511241FBECFEF87
:10007000D8E0DEBFCDBF11E0A0E0B1E0ECE8F0E1F8
:1000800002C005900D92AC33B107D9F721E0ACE383
:10009000B1E001C01D92A23EB207E1F710E0C5E356
:1000A000D0E004C02197FE010E943E08C433D1076E
:1000B000C9F70E94B5040C9444080C9400008E50BB
:1000C000806480937C0080917A00806480937A00C1
:1000D00080917A0086FDFCCF809178009091790024
:1000E00008953FB7F8948091410190914201A09109
:1000F0004301B091440126B5A89B05C02F3F19F0DC
:100100000196A11DB11D3FBFBA2FA92F982F882797
:10011000BC01CD01620F711D811D911D42E0660F72
:10012000771F881F991F4A95D1F70895AF92BF9204
:10013000CF92DF92EF92FF920F931F93CF93DF93B3
:100140006C017B018B01040F151FEB015E01AE18E2
:10015000BF08C017D10759F06991D601ED91FC9104
:100160000190F081E02DC6010995892B79F7C50131
:10017000DF91CF911F910F91FF90EF90DF90CF9083
:10018000BF90AF900895FC01538D448D252F30E032
:10019000842F90E0821B930B541710F0CF96089594
:1001A00001970895FC01918D828D981761F0A28DC1
:1001B000AE0FBF2FB11D5D968C91928D9F5F9F7387
:1001C000928F90E008958FEF9FEF0895FC01918D3D
:1001D000828D981731F0828DE80FF11D858D90E0AA
:1001E00008958FEF9FEF0895FC01918D228D892F47
:1001F00090E0805C9F4F821B91098F73992708952F
:1002000085E491E00E94F40021E0892B09F420E0CC
:10021000822F089580E090E0892B29F00E94000150
:1002200081110C9400000895FC01A48DA80FB92F32
:10023000B11DA35ABF4F2C91848D90E001968F730E
:100240009927848FA689B7892C93A089B1898C912D
:10025000837080648C93938D848D981306C002887C
:10026000F389E02D80818F7D80830895EF92FF9246
:100270000F931F93CF93DF93EC0181E0888F9B8DC9
:100280008C8D98131AC0E889F989808185FF15C083
:100290009FB7F894EE89FF896083E889F9898081A6
:1002A0008370806480839FBF81E090E0DF91CF9175
:1002B0001F910F91FF90EF900895F62E0B8D10E097
:1002C0000F5F1F4F0F731127E02E8C8D8E110CC006
:1002D0000FB607FCFACFE889F989808185FFF5CF51
:1002E000CE010E941401F1CFEB8DEC0FFD2FF11D1B
:1002F000E35AFF4FF0829FB7F8940B8FEA89FB898E
:1003000080818062CFCFCF93DF93EC01888D8823EB
:10031000B9F0AA89BB89E889F9898C9185FD03C068
:10032000808186FD0DC00FB607FCF7CF8C9185FF4D
:10033000F2CF808185FFEDCFCE010E941401E9CF7D
:10034000DF91CF910895FC0101900020E9F73197EA
:10035000AF01481B590BBC0185E491E00C94960059
:100360008F929F92AF92BF920F931F93CF93DF9381
:10037000CDB7DEB7A1970FB6F894DEBF0FBECDBFE5
:1003800019A2423008F44AE08E010F5D1F4F842EFF
:10039000912CB12CA12CA50194010E94FE07E62FFF
:1003A000B901CA01EA30F4F4E05DD801EE938D01A1
:1003B000232B242B252B79F790E080E0109719F060
:1003C000CD010E94A301A1960FB6F894DEBF0FBE27
:1003D000CDBFDF91CF911F910F91BF90AF909F90B4
:1003E0008F900895E95CE1CF4F925F926F927F9278
:1003F0008F929F92AF92BF92CF92DF92EF92FF9235
:100400000F931F93CF936B017C01742EAC019B0162
:100410000E94E407882399F082E191E0CF911F9137
:100420000F91FF90EF90DF90CF90BF90AF909F9093
:100430008F907F906F905F904F900C94A301460136
:100440005701E894B7F82FEF3FEF4FE75FE7C5019B
:10045000B4010E94E40781110DC02FEF3FEF4FE779
:100460005FE7C501B4010E94D40518161CF486E1AB
:1004700091E0D4CF2FEF3FEF4FE75FE4C701B60124
:100480000E942C0718161CF48AE191E0C7CF2FEFC9
:100490003FEF4FE75FECC701B6010E94D40587FD2F
:1004A000F3CF20E030E0A901C701B6010E94D405D6
:1004B00010E000E087FF0AC06DE285E491E00E9451
:1004C00036018C01F7FAF094F7F8F094C0E060E0A0
:1004D00070E080E09FE37C1641F020E030E040E2F5
:1004E00051E40E94D905CF5FF6CFA70196010E9483
:1004F00068052B013C010E944B064B015C014AE060
:100500000E94B0017C01E00EF11ECC23C1F1C501B7
:10051000B4010E947A069B01AC01C301B2010E94A2
:1005200067054B015C016EE285E491E00E943601B3
:10053000E80EF91EC15018F120E030E040E251E42D
:10054000C501B4010E9431072B013C010E944B06FA
:100550004B01B12CA12C4AE0C501B4010E94B001AD
:10056000E80EF91EC501B4010E947A069B01AC0198
:10057000C301B2010E9467054B015C01DBCFC701DB
:10058000CF911F910F91FF90EF90DF90CF90BF9090
:10059000AF909F908F907F906F905F904F90089555
:1005A0002F923F924F925F926F927F928F929F9283
:1005B000AF92BF92CF92DF92EF92FF920F931F9371
:1005C000CF93DF93CDB7DEB7C052D1400FB6F894CA
:1005D000DEBF0FBECDBF8E010F5F1F4F80E091E0E9
:1005E000F8019C01119221503040E1F748017E0151
:1005F00031E0E30EF31E58014BE5642E44E0742E07
:1006000085E10E945F006C0184E10E945F00D59447
:10061000C794D594C7949595879595958795C81A4D
:10062000F501C1925F01C3010197F1F7EE16FF06D4
:1006300039F7412C512C3201F801A1918F012A2F59
:10064000AA0F330BD9010E9420080E947C069B014F
:10065000AC01C301B2010E9468052B013C010A15DF
:100660001B0551F720E030E040E85BE30E943107D2
:100670000E94A40720E030E040EA50E40E943107E5
:1006800020E030E040E85BE30E9431072B013C01B1
:1006900080E2F70111928A95E9F760E020E090E0AE
:1006A00080E0F40131914F01462F50E0323084F167
:1006B00081113DC09F5F4E0D5F1DFA0120836F5F6A
:1006C00020E081E00815190561F76701812C912C64
:1006D0005401062F10E01801F1E02F1A31082FEF16
:1006E000C21AD20AC6018E199F098215930518F500
:1006F000F601608170E090E080E00E947C069B0142
:10070000AC01C501B4010E9468054B015C01E7CF53
:100710003F3F5CF4882369F02F5F4E0D5F1DFA01A7
:1007200090836F5F90E080E0CDCF882311F09F5FD2
:10073000C8CF2F5FF8CFA5019401C501B4010E9475
:1007400068056B017C01B80162507109072E000C2D
:10075000880B990B0E947C069B01AC01C701B60176
:100760000E94D9056B017C018EE191E00E94A301FA
:1007700042E0C301B2010E94F4018CE291E00E94C8
:10078000A3018FE291E00E94A301A701960160E01E
:1007900070E08AE794E40E94D90542E00E94F401E7
:1007A0008CE291E00E94A3010E9471004B015C0168
:1007B00088EEC82E83E0D82EE12CF12C0E94710027
:1007C000681979098A099B09683E7340810591057A
:1007D000A8F3F1E0CF1AD108E108F10828EE820E63
:1007E00023E0921EA11CB11CC114D104E104F10448
:1007F00029F7C05EDE4F0FB6F894DEBF0FBECDBF47
:10080000DF91CF911F910F91FF90EF90DF90CF90EC
:10081000BF90AF909F908F907F906F905F904F9020
:100820003F902F9008951F920F920FB60F921124B0
:100830002F933F938F939F93AF93BF9380913D01ED
:1008400090913E01A0913F01B091400130913C0157
:1008500023E0230F2D3758F50196A11DB11D2093DC
:100860003C0180933D0190933E01A0933F01B093E2
:1008700040018091410190914201A0914301B091CA
:1008800044010196A11DB11D809341019093420145
:10089000A0934301B0934401BF91AF919F918F9179
:1008A0003F912F910F900FBE0F901F90189526E843
:1008B000230F0296A11DB11DD2CF1F920F920FB62A
:1008C0000F9211242F933F934F935F936F937F93D6
:1008D0008F939F93AF93BF93EF93FF9385E491E042
:1008E0000E941401FF91EF91BF91AF919F918F9161
:1008F0007F916F915F914F913F912F910F900FBE1C
:100900000F901F9018951F920F920FB60F921124FF
:100910002F938F939F93EF93FF93E0915501F09165
:1009200056018081E0915B01F0915C0182FD1BC06A
:10093000908180915E018F5F8F7320915F0182179C
:1009400041F0E0915E01F0E0EB5BFE4F958F80930C
:100950005E01FF91EF919F918F912F910F900FBEAC
:100960000F901F9018958081F4CF789484B58260A1
:1009700084BD84B5816084BD85B5826085BD85B543
:10098000816085BD80916E00816080936E001092C1
:10099000810080918100826080938100809181003C
:1009A00081608093810080918000816080938000CD
:1009B0008091B10084608093B1008091B00081602B
:1009C0008093B00080917A00846080937A00809157
:1009D0007A00826080937A0080917A0081608093AF
:1009E0007A0080917A00806880937A001092C1002A
:1009F000E0915501F091560182E08083E091510130
:100A0000F09152011082E0915301F09154018FEC6A
:100A1000808310925D01E0915901F0915A0186E0C6
:100A20008083E0915701F09158018081806180833B
:100A3000E0915701F0915801808188608083E091B6
:100A40005701F0915801808180688083E0915701BF
:100A5000F091580180818F7D8083C0E0D0E00E94BA
:100A6000D0022097E1F30E9400018823C1F30E9485
:100A70000000F5CFE5E4F1E01382128288EE93E006
:100A8000A0E0B0E084839583A683B78384E091E0FF
:100A90009183808385EC90E09587848784EC90E057
:100AA0009787868780EC90E0918B808B81EC90E03B
:100AB000938B828B82EC90E0958B848B86EC90E01C
:100AC000978B868B118E128E138E148E089550582C
:100AD000BB27AA270E947F050C94F2060E94E40619
:100AE00038F00E94EB0620F039F49F3F19F426F409
:100AF0000C94E1060EF4E095E7FB0C94DB06E92F7D
:100B00000E94030758F3BA17620773078407950713
:100B100020F079F4A6F50C9425070EF4E0950B2E41
:100B2000BA2FA02D0B01B90190010C01CA01A0013F
:100B30001124FF27591B99F0593F50F4503E68F19A
:100B40001A16F040A22F232F342F4427585FF3CFDB
:100B5000469537952795A795F0405395C9F77EF4AC
:100B60001F16BA0B620B730B840BBAF09150A1F0F5
:100B7000FF0FBB1F661F771F881FC2F70EC0BA0F7B
:100B8000621F731F841F48F4879577956795B79503
:100B9000F7959E3F08F0B0CF9395880F08F09927FE
:100BA000EE0F9795879508950E94B70608F481E0A7
:100BB00008950E94ED050C94F2060E94EB0658F091
:100BC0000E94E40640F029F45F3F29F00C94DB0614
:100BD00051110C9426070C94E1060E94030768F358
:100BE0009923B1F3552391F3951B550BBB27AA27E6
:100BF00062177307840738F09F5F5F4F220F331F20
:100C0000441FAA1FA9F335D00E2E3AF0E0E832D0E7
:100C100091505040E695001CCAF72BD0FE2F29D0EA
:100C2000660F771F881FBB1F261737074807AB07BC
:100C3000B0E809F0BB0B802DBF01FF2793585F4F31
:100C40003AF09E3F510578F00C94DB060C94260791
:100C50005F3FE4F3983ED4F3869577956795B79513
:100C6000F7959F5FC9F7880F911D9695879597F91E
:100C70000895E1E0660F771F881FBB1F6217730797
:100C80008407BA0720F0621B730B840BBA0BEE1FAC
:100C900088F7E09508950E940B0788F09F5798F019
:100CA000B92F9927B751B0F0E1F0660F771F881F71
:100CB000991F1AF0BA95C9F714C0B13091F00E948B
:100CC0002507B1E008950C942507672F782F882712
:100CD000B85F39F0B93FCCF3869577956795B395B2
:100CE000D9F73EF490958095709561957F4F8F4F21
:100CF0009F4F0895E89409C097FB3EF49095809526
:100D0000709561957F4F8F4F9F4F9923A9F0F92FD1
:100D100096E9BB279395F695879577956795B7954F
:100D2000F111F8CFFAF4BB0F11F460FF1BC06F5F35
:100D30007F4F8F4F9F4F16C0882311F096E911C047
:100D4000772321F09EE8872F762F05C0662371F068
:100D500096E8862F70E060E02AF09A95660F771F7C
:100D6000881FDAF7880F9695879597F90895990F58
:100D70000008550FAA0BE0E8FEEF16161706E80765
:100D8000F907C0F012161306E407F50798F0621B86
:100D9000730B840B950B39F40A2661F0232B242B5B
:100DA000252B21F408950A2609F4A140A6958FEF7A
:100DB000811D811D089597F99F6780E870E060E0CC
:100DC00008959FEF80EC089500240A9416161706E4
:100DD00018060906089500240A941216130614062C
:100DE00005060895092E0394000C11F4882352F08F
:100DF000BB0F40F4BF2B11F460FF04C06F5F7F4F47
:100E00008F4F9F4F089557FD9058440F551F59F02D
:100E10005F3F71F04795880F97FB991F61F09F3FE7
:100E200079F087950895121613061406551FF2CF10
:100E30004695F1DF08C0161617061806991FF1CF60
:100E400086957105610508940895E894BB27662787
:100E50007727CB0197F908950E94B70608F48FEF22
:100E600008950E9444070C94F2060E94E40638F0AC
:100E70000E94EB0620F0952311F00C94DB060C94F5
:100E8000E10611240C9426070E94030770F3959F36
:100E9000C1F3950F50E0551F629FF001729FBB2771
:100EA000F00DB11D639FAA27F00DB11DAA1F649F0D
:100EB0006627B00DA11D661F829F2227B00DA11DC0
:100EC000621F739FB00DA11D621F839FA00D611D46
:100ED000221F749F3327A00D611D231F849F600D67
:100EE000211D822F762F6A2F11249F5750409AF090
:100EF000F1F088234AF0EE0FFF1FBB1F661F771F1C
:100F0000881F91505040A9F79E3F510580F00C94E6
:100F1000DB060C9426075F3FE4F3983ED4F38695F6
:100F200077956795B795F795E7959F5FC1F7FE2B86
:100F3000880F911D9695879597F9089519F416F4E1
:100F40000C94E1060C94E9070E940B07B8F399236F
:100F5000C9F3B6F39F57550B87FF0E94F70700248C
:100F6000A0E640EA900180585695979528F4805C59
:100F7000660F771F881F20F026173707480730F4C1
:100F8000621B730B840B202931294A2BA6951794D9
:100F90000794202531254A2758F7660F771F881FA9
:100FA00020F026173707480730F4620B730B840BC9
:100FB000200D311D411DA09581F7B901842F915855
:100FC000880F9695879508950E94B706880B990B10
:100FD00008959F3F31F0915020F48795779567955C
:100FE000B795880F911D9695879597F9089591501B
:100FF0005040660F771F881FD2F70895A1E21A2E7E
:10100000AA1BBB1BFD010DC0AA1FBB1FEE1FFF1FAC
:10101000A217B307E407F50720F0A21BB30BE40BFC
:10102000F50B661F771F881F991F1A9469F7609543
:101030007095809590959B01AC01BD01CF010895FD
:101040000E942808332312F48A1B9B0B0C94390846
:10105000A29FB001B39FC001A39F700D811D1124F9
:10106000911DB29F700D811D1124911D08950E9444
:101070002808B7FF0895821B930B0895EE0FFF1FFA
:0C1080000590F491E02D0994F894FFCF46
:10108C000000000036019600C3008301F400D2007A
:10109C00E6006E616E00696E66006F766600566FD4
:1010AC006C74616A6520524D533A20000D0A00465B
:0C10BC0072656375656E6369613A20001F
:00000001FF
